:100000000C945D000C9485000C9485000C94850084
:100010000C9485000C9485000C9485000C9485004C
:100020000C9485000C9485000C9485000C9485003C
:100030000C9485000C9485000C9485000C9485002C
:100040000C9431040C9485000C94FF030C94D90398
:100050000C9485000C9485000C9485000C9485000C
:100060000C9485000C94850000000008000201003B
:100070000003040700000000000000000000000072
:10008000250028002B0000000000240027002A0083
:10009000040404040404040402020202020203032E
:1000A0000303030301020408102040800102040836
:1000B00010200102040810207B0411241FBECFEF82
:1000C000D8E0DEBFCDBF11E0A0E0B1E0E6E4FCE0A7
:1000D00002C005900D92AE33B107D9F722E0AEE32E
:1000E000B1E001C01D92A030B207E1F710E0CDE50C
:1000F000D0E004C02197FE010E941B06CC35D10739
:10010000C9F70E94C5040C9421060C94000090E0ED
:10011000FC01EC55FF4F249180579F4FFC018491C7
:10012000882399F090E0880F991FFC01EA57FF4F50
:10013000A591B491FC01E458FF4F859194918FB73C
:10014000F894EC91E22BEC938FBF0895AF92BF929D
:10015000CF92DF92EF92FF920F931F93CF93DF9393
:100160006C017B018B01040F151FEB015E01AE18C2
:10017000BF08C017D10759F06991D601ED91FC91E4
:100180000190F081E02DC6010995892B79F7C50111
:10019000DF91CF911F910F91FF90EF90DF90CF9063
:1001A000BF90AF900895FC01538D448D252F30E012
:1001B000842F90E0821B930B541710F0CF96089574
:1001C00001970895FC01918D828D981761F0A28DA1
:1001D000AE0FBF2FB11D5D968C91928D9F5F9F7367
:1001E000928F90E008958FEF9FEF0895FC01918D1D
:1001F000828D981731F0828DE80FF11D858D90E08A
:1002000008958FEF9FEF0895FC01918D228D892F26
:1002100090E0805C9F4F821B91098F73992708950E
:100220008BE491E00E94040121E0892B09F420E095
:10023000822F089580E090E0892B29F00E94100120
:1002400081110C9400000895FC01A48DA80FB92F12
:10025000B11DA35ABF4F2C91848D90E001968F73EE
:100260009927848FA689B7892C93A089B1898C910D
:10027000837080648C93938D848D981306C002885C
:10028000F389E02D80818F7D80830895EF92FF9226
:100290000F931F93CF93DF93EC0181E0888F9B8DA9
:1002A0008C8D98131AC0E889F989808185FF15C063
:1002B0009FB7F894EE89FF896083E889F989808186
:1002C0008370806480839FBF81E090E0DF91CF9155
:1002D0001F910F91FF90EF900895F62E0B8D10E077
:1002E0000F5F1F4F0F731127E02E8C8D8E110CC0E6
:1002F0000FB607FCFACFE889F989808185FFF5CF31
:10030000CE010E942401F1CFEB8DEC0FFD2FF11DEA
:10031000E35AFF4FF0829FB7F8940B8FEA89FB896D
:1003200080818062CFCFCF93DF93EC01888D8823CB
:10033000B9F0AA89BB89E889F9898C9185FD03C048
:10034000808186FD0DC00FB607FCF7CF8C9185FF2D
:10035000F2CF808185FFEDCFCE010E942401E9CF4D
:10036000DF91CF91089590E0FC01E859FF4F24916F
:10037000FC01EC55FF4F3491FC01E057FF4FE49135
:10038000EE23C9F0222339F0233001F1A8F4213003
:1003900019F1223029F1F0E0EE0FFF1FE458FF4F72
:1003A000A591B4918FB7F894EC91611126C0309566
:1003B0003E233C938FBF08952730A9F02830C9F021
:1003C000243049F7809180008F7D03C080918000A8
:1003D0008F7780938000DFCF84B58F7784BDDBCFAC
:1003E00084B58F7DFBCF8091B0008F778093B00074
:1003F000D2CF8091B0008F7DF9CF3E2BDACF8E50D7
:10040000806480937C0080917A00806480937A007D
:1004100080917A0086FDFCCF8091780090917900E0
:1004200008953FB7F8948091430190914401A091C1
:100430004501B091460126B5A89B05C02F3F19F094
:100440000196A11DB11D3FBFBA2FA92F982F882754
:10045000BC01CD01620F711D811D911D42E0660F2F
:10046000771F881F991F4A95D1F70895089590E046
:1004700080E00895CF93DF93EC0160E08E810E94CD
:10048000B30161E08E810E94B30160E08E810E9421
:10049000B3018BE891E00197F1F7DF91CF910895D7
:1004A000CF92DF92EF92FF920F931F93CF93DF9340
:1004B0006C017C0187E0E80EF11CD0E0C0E0062F63
:1004C00010E0B8010C2E02C0759567950A94E2F70A
:1004D0006170F70181917F010E94B3012196C430C0
:1004E000D10579F7C601DF91CF911F910F91FF9050
:1004F000EF90DF90CF900C943A02CF92DF92EF9280
:10050000FF920F931F93CF93DF93EC01F62E642F8E
:100510008C810E94B3018D818F3F19F060E00E94B1
:10052000B3010F2D10E08F8584FF25C06E0187E099
:10053000C80ED11CF12CE12CB8010E2C02C075950F
:1005400067950A94E2F76170F60181916F010E944C
:10055000B301FFEFEF1AFF0A88E0E816F10461F734
:10056000CE01DF91CF911F910F91FF90EF90DF901F
:10057000CF900C943A02B80184E0759567958A95FE
:10058000E1F7CE010E9450026F2DCE01DF91CF9195
:100590001F910F91FF90EF90DF90CF900C9450023D
:1005A00040E0682F88EE91E00C947D02CF93DF93BA
:1005B000823029F49091F70198609093F70180932D
:1005C000FB011092FC0180E48093FD0180E18093A7
:1005D000FE0180E58093FF018091EC010E9487007D
:1005E0008091ED018F3F11F00E9487008091EE0114
:1005F0000E948700C8EED1E09E01285E31408091C4
:10060000F70184FD0AC084E090E02196281739079D
:100610003CF48E810E948700EFCF88E090E0F5CF18
:100620008BE39DE00197F1F760E08091EC010E947F
:10063000B30160E08091EE010E94B3018091ED0171
:100640008F3F19F060E00E94B3018091F70184FDB3
:1006500039C063E088EE91E00E945002CBE4D6E41A
:10066000CE010197F1F763E088EE91E00E9450021D
:100670002197F1F763E088EE91E00E94500283E554
:1006800092E00197F1F762E088EE91E00E9450025B
:100690008091F70180620E94D00284E08093F8018B
:1006A0008CE00E94D00281E00E94D0028BE39FE1A7
:1006B0000197F1F782E08093F90186E0DF91CF9115
:1006C0000C94D00280620E94D0028BE496E40197E1
:1006D000F1F78091F70180620E94D00283E592E0F9
:1006E0000197F1F78091F70180620E94D002D0CF8C
:1006F00041E00E947D0281E090E00895FB010190BD
:100700000020E9F73197AF01461B570BDC01ED9153
:10071000FC910280F381E02D09948F929F92AF9219
:10072000BF92EF92FF920F931F93CF93DF93CDB7BA
:10073000DEB7A1970FB6F894DEBF0FBECDBF7C0128
:10074000FA01CB0119A2223008F42AE08E010F5DD4
:100750001F4F822E912CB12CA12CBF01A501940119
:100760000E94F905F901CA016A300CF5605DD801F3
:100770006E938D01232B242B252B79F790E080E0BD
:10078000109721F0BD01C7010E947E03A1960FB60C
:10079000F894DEBF0FBECDBFDF91CF911F910F91B7
:1007A000FF90EF90BF90AF909F908F900895695CFD
:1007B000DECF1F920F920FB60F9211242F933F930B
:1007C0004F935F936F937F938F939F93AF93BF9359
:1007D000EF93FF938BE491E00E942401FF91EF914E
:1007E000BF91AF919F918F917F916F915F914F9149
:1007F0003F912F910F900FBE0F901F9018951F9251
:100800000F920FB60F9211242F938F939F93EF9314
:10081000FF93E0915B01F0915C018081E0916101C7
:10082000F091620182FD1BC09081809164018F5F15
:100830008F7320916501821741F0E0916401F0E02F
:10084000E55BFE4F958F80936401FF91EF919F913F
:100850008F912F910F900FBE0F901F901895808150
:10086000F4CF1F920F920FB60F9211242F933F9344
:100870008F939F93AF93BF9380913F0190914001DD
:10088000A0914101B091420130913E0123E0230F3C
:100890002D3758F50196A11DB11D20933E0180937F
:1008A0003F0190934001A0934101B0934201809198
:1008B000430190914401A0914501B09146010196F8
:1008C000A11DB11D8093430190934401A093450164
:1008D000B0934601BF91AF919F918F913F912F911E
:1008E0000F900FBE0F901F90189526E8230F0296C9
:1008F000A11DB11DD2CFEBE4F1E01382128288EE8C
:1009000093E0A0E0B0E084839583A683B78384E07E
:1009100091E09183808385EC90E09587848784ECD7
:1009200090E09787868780EC90E0918B808B81ECBC
:1009300090E0938B828B82EC90E0958B848B86EC9D
:1009400090E0978B868B118E128E138E148EE8EEAC
:10095000F1E01382128286E191E0918380838DE041
:1009600084838FEF85838CE086838BE087838AE0A6
:10097000808789E0818788E08287138614861586C0
:100980001686178681E00C94D602789484B582602E
:1009900084BD84B5816084BD85B5826085BD85B523
:1009A000816085BD80916E00816080936E001092A1
:1009B000810080918100826080938100809181001C
:1009C00081608093810080918000816080938000AD
:1009D0008091B10084608093B1008091B00081600B
:1009E0008093B00080917A00846080937A00809137
:1009F0007A00826080937A0080917A00816080938F
:100A00007A0080917A00806880937A001092C10009
:100A100086E00E948700E0915B01F0915C0182E03A
:100A20008083E0915701F09158011082E0915901C3
:100A3000F0915A018FEC808310926301E0915F0185
:100A4000F091600186E08083E0915D01F0915E01AC
:100A5000808180618083E0915D01F0915E01808101
:100A600088608083E0915D01F0915E018081806803
:100A70008083E0915D01F0915E0180818F7D8083B4
:100A800081E00E94D0028BE39FE10197F1F786E0BD
:100A90000E94870082E00E94D602C0E0D0E08EE093
:100AA0000E94FF0190934A01809349018FE00E94C8
:100AB000FF0190934801809347016EE171E08BE460
:100AC00091E00E947E03409147015091480170E0FF
:100AD00060E02AE08BE491E00E948D036CE271E01B
:100AE0008BE491E00E947E036FE271E08BE491E081
:100AF0000E947E034091490150914A0170E060E0FC
:100B00002AE08BE491E00E948D036CE271E08BE4BB
:100B100091E00E947E03E1E08091FB018111E0E021
:100B2000E195F0E0E851FE4F848980680E94D00290
:100B30006EE171E088EE91E00E947E0340914701F2
:100B40005091480170E060E02AE088EE91E00E9458
:100B50008D03E091FB01E23008F049C0E150F0E084
:100B6000E851FE4F848980680E94D0026FE271E0F4
:100B700088EE91E00E947E034091490150914A0124
:100B800070E060E02AE088EE91E00E948D030E9410
:100B900011024B015C0184EFC82EDD24D394E12CBB
:100BA000F12C0E941102681979098A099B09683E93
:100BB000734081059105A8F321E0C21AD108E1082C
:100BC000F10888EE880E83E0981EA11CB11CC114A8
:100BD000D104E104F10429F7209709F460CF0E94C1
:100BE0001001882309F45BCF0E94000058CFE1E098
:100BF000B6CFA1E21A2EAA1BBB1BFD010DC0AA1F76
:100C0000BB1FEE1FFF1FA217B307E407F50720F075
:100C1000A21BB30BE40BF50B661F771F881F991FF0
:100C20001A9469F760957095809590959B01AC0139
:100C3000BD01CF010895EE0FFF1F0590F491E02D47
:060C40000994F894FFCFB7
:100C4600000000004601A600D30093010401E20063
:100C5600F600000000007803A6003702360241695C
:100C660072205175616C6974793A20000D0A00474B
:0E0C7600617320536174757261743A2000003E
:00000001FF
